:020000040800F2
:100000000861002009030008E1400008F7390008F2
:10001000313F0008B50B0008D5570008000000006C
:10002000000000000000000000000000490200087D
:10003000B50E000800000000A5020008E54F00080A
:1000400023030008230300082303000823030008F8
:100050002303000823030008490F000823030008B6
:10006000230300087D0F000823030008750D000816
:10007000810D00088D0D0008990D0008A50D0008E0
:10008000B10D0008BD0D000841060008E50B000891
:10009000B90B00082303000823030008230300080A
:1000A0002D51000823030008230300082303000840
:1000B0002303000823030008230300082303000888
:1000C0002303000823030008230300082303000878
:1000D00023030008A5570008B1570008BD570008C2
:1000E0004F0F000823030008230300082303000820
:1000F000230300083951000823030008C90D000834
:100100002303000823030008230300082303000837
:100110002D53000839530008230300082303000867
:10012000D50D0008E10D0008ED0D000823030008BF
:100130002303000823030008230300082303000807
:1001400023030008230300082303000823030008F7
:1001500023030008F90D0008050E0008C957000820
:1001600023030008230300082303000823030008D7
:1001700023030008230300082303000800000000F5
:10018000230300082303000800F002F800F04CF8F5
:100190000AA090E8000C82448344AAF10107DA45E2
:1001A00001D100F041F8AFF2090EBAE80F0013F0E8
:1001B000010F18BFFB1A43F001031847F085000038
:1001C000108600000A4410F8014B14F00F0508BF18
:1001D00010F8015B240908BF10F8014B6D1E05D013
:1001E00010F8013B6D1E01F8013BF9D1641E03D0EC
:1001F000641E01F8015BFBD19142E4D3704700001B
:100200000023002400250026103A28BF78C1FBD81F
:10021000520728BF30C148BF0B6070471FB508F0B8
:1002200087F91FBD10B510BD00F0D0F91146FFF7DA
:10023000F5FF05F047FB00F0EEF903B4FFF7F2FF1E
:1002400003BC00F0F5F900002C4B19680868B0E811
:10025000F04F80F30988BFF36F8F4FF0000080F3F9
:10026000118870470000000008480068006880F3AB
:1002700008884FF0000080F3148862B661B6BFF3BF
:100280004F8FBFF36F8F00DF00BF00BF08ED00E0AE
:10029000DFF80C00016841F470010160704700BF95
:1002A00088ED00E0EFF30980BFF36F8F134B1A68FE
:1002B0001EF0100F08BF20ED108A20E9F04F1060EB
:1002C00009B44FF0500080F31188BFF34F8FBFF394
:1002D0006F8F06F0D1FD4FF0000080F3118809BC4C
:1002E00019680868B0E8F04F1EF0100F08BFB0ECB6
:1002F000108A80F30988BFF36F8F704738000020A1
:10030000EFF305807047000009488047094800471F
:10031000FEE7FEE7FEE7FEE7FEE7FEE7FEE7FEE7B5
:10032000FEE7FEE704480549054A064B7047000012
:100330009550000889010008085B00200861002032
:10034000085D0020085D002053EA020C00F069807F
:100350002DE9F04B4FF00006002B1FBFB3FA83F5D9
:1003600003FA05F424FA05F65E4012BF1643B2FA0A
:1003700082F502FA05F4C5F120051EBF22FA05FC3C
:1003800044EA0C04203556EA044C4FEA144418BFE2
:10039000641C4FF000084FF00009904271EB030C11
:1003A00039D3002919BFB1FA81F701FA07F6B0FA7B
:1003B00080F700FA07F6C7F120071EBF20FA07FCF6
:1003C00046EA0C062037B6FBF4FCA7EB0507103F06
:1003D00007F01F0BCBF120060CFA0BFB2CFA06F6EC
:1003E00044BFB3460026202FA4BF5E464FF0000B4B
:1003F0005BEA060C08BF4FF0010B19EB0B09ABFBD6
:10040000027C48EB0608C01B06FB02CC0BFB03CCAE
:1004100071EB0C01C1E70B46024641464846BDE878
:10042000F08B13B54FF000004FF00001AFF30080E8
:10043000BDE81C407047032A40F2308010F0030CE6
:1004400000F0158011F8013BBCF1020F624498BF27
:1004500011F801CB00F8013B38BF11F8013BA2F1C4
:10046000040298BF00F801CB38BF00F8013B11F03F
:10047000030300F05780083AC0F0088051F8043BAD
:10048000083A51F804CBA0E80810F5E7121D5CBF4C
:1004900051F8043B40F8043BAFF30080D20724BF7F
:1004A00011F8013B11F801CB48BF11F8012B24BF13
:1004B00000F8013B00F801CB48BF00F8012B704762
:1004C00002F0FF0343EA032242EA024200F05EB870
:1004D0004FF0000200B5134694469646203922BFDD
:1004E000A0E80C50A0E80C50B1F12001BFF4F7AF28
:1004F000090728BFA0E80C5048BF0CC05DF804EB0A
:10050000890028BF40F8042B08BF704748BF20F877
:10051000022B11F0804F18BF00F8012B7047704775
:100520007047704710B5203AC0F00B80B1E8185002
:10053000203AA0E81850B1E81850A0E81850BFF4CD
:10054000F5AF5FEA027C24BFB1E81850A0E818506C
:1005500044BF18C918C0BDE810405FEA827C24BFC0
:1005600051F8043B40F8043B08BF7047D20728BF4E
:1005700031F8023B48BF11F8012B28BF20F8023B9D
:1005800048BF00F8012B70474FF000020429C0F06B
:10059000128010F0030C3FF49DAFCCF1040CBCF1C1
:1005A000020F18BF00F8012BA8BF20F8022BA1EB07
:1005B0000C01FFF78FBF5FEAC17C24BF00F8012B5D
:1005C00000F8012B48BF00F8012B7047754600F07A
:1005D0002BF8AE4605006946534620F007008546D5
:1005E00018B020B5FFF79EFEBDE820404FF0000692
:1005F0004FF000074FF000084FF0000B21F007010B
:10060000AC46ACE8C009ACE8C009ACE8C009ACE84D
:10061000C0098D46704710B50446AFF300802046F0
:10062000BDE81040FFF709BE00487047A45A0020FB
:1006300001491820ABBEFEE726000200704700000B
:10064000014800F049BD00003C090020464910B5B2
:100650004A6822F440324A604A6843681A434A6052
:1006600001684A6822F480724A6001684A68036936
:1006700042EA03224A6001684A6822F040724A60F6
:1006800001684A6883681A434A6001688A6822F4EC
:1006900000628A6001688A68C3681A438A60816A56
:1006A0006FF07062D14201688A6822F070628A60DD
:1006B00001688A680CD0836A1A438A6001688A6874
:1006C00022F040528A6001688A68C36A1A4301E0D6
:1006D00022F040528A6001688A6822F002028A6031
:1006E00001688A68037E42EA43028A6090F820101B
:1006F000002901684A680FD042F400624A6001682C
:100700004A6822F460424A6001684A68174C436AAA
:1007100004EB43331A4301E022F400624A600168AB
:10072000CA6A22F47002CA620168CA6A838B104CDA
:1007300004EB03531A43CA6201688A6822F4007208
:100740008A6001688A6890F8303042EA43228A6001
:1007500001688A6822F480628A6001688A68406958
:1007600042EA8020886010BD0023014000E0FFFFC6
:100770000000F0FF2DE9F05FBF4CC14EDFF8FC82B6
:10078000E17A30780027D1B103280BD0BD4800783A
:100790003070B8B1B8F81000012803D05FF0010044
:1007A00004F012F9B84DE07A2880698830788142E7
:1007B00017D0012808D0002004F006F90FE0032824
:1007C000F0D037700020EBE7B048C078012802D1A4
:1007D000062004F0F9F841F2883005F011FA30787B
:1007E0006880207A4FF00109E0B104F045FD2770E0
:1007F000E77084F8019084F80290E07CA4490D230E
:10080000DFF890A24FF0020B032834D00B2204280B
:100810004ED0052861D0002875D0012871D002285B
:1008200070D0BFE084F80090E1783C29E5D3E77010
:100830002770617809B12F81677004F01DFDA07ADF
:1008400003280AD19448007838B994480780478033
:100850008780C780078184F80A90A0780028CCD0D0
:100860003770C82005F0CCF93770C82005F0C8F9FA
:100870003770A770C1E79AF8000048B930780328AC
:1008800006D0E28B22B1097811B908B1A8F80C3072
:10089000608B0C2806D084F80CB00121022000F0F7
:1008A000A7F903E0794981F801906773AF8042E0CE
:1008B0009AF8000038B93078032804D0097811B9C3
:1008C00008B1A8F80C2084F80CB00121022000F037
:1008D0008FF9AF80A5F8069064E09AF8000038B967
:1008E0003078032804D0097811B908B1A8F80C2091
:1008F00084F80CB00121022000F07AF9AF8034E0D6
:1009000001E01CE036E09AF8000048B9307803288E
:1009100006D0E28B22B1097811B908B1A8F80C30E1
:1009200084F80C90A07A022807D00121012000F061
:100930005FF9A5F80490EF8034E00021F6E79AF81B
:10094000000038B93078032804D0097811B908B10B
:10095000A8F80C2084F80C90A07A022808D0012175
:10096000012000F045F9A5F80490A5F806B019E0BB
:100970000021F5E79AF8000038B93078032804D050
:10098000097811B908B1A8F80C2084F80C90A07A65
:1009900002281DD00121012000F02AF9A5F80490B9
:1009A000A5F80690DFF8E4B0DFF8F4909BF80100BA
:1009B00080B1B9F8060001285CD094ED090ABCEEBC
:1009C000C00A10EE100A288130786880BDE8F09FD8
:1009D0000021E0E73078012802D1042003F0F4FF81
:1009E0009BF80210F9B130786880B9F80600012848
:1009F00025D094ED090AF6EE000A20EE200ABCEE9E
:100A0000C00A00BF10EE100AA5F808009AF800000E
:100A10000028DBD130780028D8D00328D6D009218F
:100A2000A8F80C10D2E79BF8030030B16988307841
:100A300081420CD0012804D008E0032068802F8177
:100A4000E4E740F6B83005F0DBF830786880B9F8B4
:100A50000600012808D094ED090AF0EE080A80EE9D
:100A6000201ABCEEC10ACDE79FED0E0A2F8184ED5E
:100A7000090ACBE72F81A7E7C4000020CC0700209C
:100A800002000020030000208C0B0020BC0000208E
:100A9000000000207B010020010000203006002023
:100AA000300900200000000070B5002003F08CFF2A
:100AB000164D00240120EC74AC741549A872EC7238
:100AC0000870144902460C7068758102124801F0E2
:100AD0002EFB4FF40061114801F01CFB104998B146
:100AE000032008700F4804700F4844816C736C63D6
:100AF000AC7501F021FB286301F01EFBE86201F0F8
:100B00001BFB0A49086070BD0C70EBE7C4000020B5
:100B10007A0100207B010020001402400000024006
:100B200002000020030000208C0B00207401002034
:100B300000F07CF800F0A0F8012005F061F8F7E77C
:100B40001A491B480A8832B14A88C82A06D940F295
:100B500099110184704740F29511FAE78A8B62B1CE
:100B6000098C69B1417B962910D9017B01290AD0F2
:100B70000229EFD14FF4CA71EBE740F29111E8E797
:100B80004FF4C971E5E740F29311E2E7817B0F2949
:100B900002D94FF4CC71DCE7C17B0F2902D94FF4A5
:100BA000CB71D6E74FF4C871D3E70000F002002004
:100BB000C4000020FEE7000010B5064800F013FD59
:100BC000054B064A0021034800F099FC0449002027
:100BD000087010BD84090020BC000020605A00206D
:100BE000D1000020014800F0FEBC00008409002074
:100BF00008B5002200928DF801100949094B0860E0
:100C00000120C1E901020220C1E903206A46064829
:100C100000F08AFB002801D000F0B3F908BD000005
:100C2000205A0020B80000208409002030B5104868
:100C30000023B0F850100F48142901D2837030BD42
:100C40000C4AA1F11505012452784B2D06D21AB198
:100C50005629F4D2437030BD847030BD5F2905D36E
:100C6000012A00D044700221817030BD0321FBE7CE
:100C700098040020780100202DE9F047344EDFF879
:100C8000D4A00127F078344C4FF002084FF480795B
:100C9000002580B17903314801F03CFA00287078D2
:100CA00020D080B325806580A5800022494650462B
:100CB00001F03DFAF570B178002946D02848077058
:100CC0002848027828482AB3828B02B17560274AE7
:100CD0001278012A21D0022926D0F17829B371781F
:100CE00071B322E058B125806580A5802089012854
:100CF0000AD000224946504601F019FADBE7278066
:100D00006780A780F2E701E00122F3E72780A4F8DB
:100D10000280C9E7164A1288D7E7F07810B125801B
:100D20006580A580F57003E0F57025806580A5805D
:100D3000258149465046BDE8F047002201F0F7B949
:100D400027806780A780A0F80C80BDE8F0870000AE
:100D5000780100200020024030090020001C0240E1
:100D6000D9000020D8000020CC070020020000207D
:100D700030060020014800F09BBE0000D40C00208B
:100D8000014800F095BE0000140F0020014800F05B
:100D90008FBE0000140C0020014800F089BE000046
:100DA000740F0020014800F083BE0000740C002086
:100DB000014800F07DBE0000540E0020014800F004
:100DC00077BE0000B40E0020014800F071BE0000A4
:100DD000340D0020014800F06BBE0000B40B002071
:100DE000014800F065BE0000D40F0020014800F06B
:100DF0005FBE0000940D0020014800F059BE0000C5
:100E000034100020014800F053BE0000F40D002013
:100E100001681823CAB2103AB2FBF3F2054B6FF324
:100E20000901032A9B5CC36500D9091D8165084639
:100E3000704700006486000810B5014600208B69E9
:100E40008A6A4FF0C07453B1B3F5005F15D072B128
:100E5000012A0CD0022A0AD0032A09D104E01AB1CF
:100E6000012A06D0022A03D1C96AC90100D501208E
:100E700010BDC96AA142FAD010BD002AF7D0012ADC
:100E8000F2D0022AF3D0032AF3D010BD30B50468A3
:100E9000256825F480252560046863608368402BFD
:100EA000036803D099600068C26030BD9A60006832
:100EB000C16030BD704700002DE9F0411B4F4FF479
:100EC0000061384601F026F9194C0825194E2074A6
:100ED000012804D01848B0F85000012803D102209E
:100EE00003F072FDB581607C18B9B581032003F071
:100EF0006BFD4FF48051384601F00CF988B10022A7
:100F000080210E4801F013F94FF480410C4801F0A4
:100F100001F940B10022BDE8F0410821094801F083
:100F200006B90122ECE70122F5E7000000000240CB
:100F3000C4000020CC070020300600200020024022
:100F4000001C024000100240012000F0DFBF10B57D
:100F50004FF4006000F0DAFF4FF4805000F0D6FF4D
:100F60004FF4005000F0D2FF4FF4804000F0CEFF6D
:100F7000BDE810404FF4004000F0C8BF082000F06A
:100F8000C5BF72B6FEE7704778B50024009490F8AC
:100F90003C20012A19D0012280F83C200A6807234E
:100FA0000568092A13D9EE680A3A02EB4202934017
:100FB0009E43EE600B788A680A3B03EB43039A403A
:100FC0000368DD682A43DA6010E0022078BD2E69EC
:100FD00002EB420293409E432E610B788A6803EB3A
:100FE00043039A4003681D692A431A614A681F2314
:100FF000072A13D205686E6B521E02EB82029340E1
:101000009E436E630B790A885B1E92B203EB8303E7
:101010009A4003685D6B2A435A6327E005680D2AEE
:1010200012D22E6BD21F02EB820293409E432E639C
:101030000B790A88DB1F92B203EB83039A400368A3
:101040001D6B2A431A6311E0EE6A0D3A02EB82022D
:1010500093409E43EE620B790A880D3B92B203EBFC
:1010600083039A400368DD6A2A43DA62164B0568F7
:10107000144A9D4206D10D68122D03D1556845F4DE
:101080008005556005689D4218D10B68102B01D072
:10109000112B13D1536843F40003536009681029DE
:1010A0000CD10A490A4A0968B1FBF2F101EB81014E
:1010B000490000E0491E00910029FBD180F83C4026
:1010C000002078BD002301400020014034000020B2
:1010D00040420F007047704770B5044600680668CC
:1010E000456816F0020F05F020012AD049B3216CA3
:1010F000C90603D4216C41F400712164816811F0A8
:10110000405F17D1217EA9B9C16A11F4700F02D0D6
:10111000816849050ED4416821F020014160206CAE
:1011200020F480702064206CC00403D4206C40F054
:10113000010020642046FFF7CDFF21686FF0120008
:10114000086016F0040F05F0800132D089B3206CDE
:10115000C00603D4206C40F40050206420688168ED
:1011600011F4401F1ED1816B11F4401F02D0816821
:10117000490517D44168490514D4816811F0405FCE
:1011800010D1217E71B9416821F080014160206C4D
:1011900020F480502064206CC00503D4206C40F003
:1011A000010020642046FFF7EEFE21686FF00C007E
:1011B000086016F0010F05F040010FD071B12068F2
:1011C0000068C0070AD0206C40F4803020642046BC
:1011D00000F043F821686FF00100086016F0200F5E
:1011E00005F080610ED000290CD0606C40F0020048
:1011F000606420686FF0200505602046FFF76BFFF4
:101200002068056070BD70B504004FF0000503D084
:10121000206C002610B107E0012070BD204600F0D0
:101220001DF8666484F83C60206CC00610D4206C05
:1012300020F4885040F0020020642046FFF706FAB0
:101240006664206C20F0020040F00100206400E0A1
:10125000012584F83C60284670BD704770B586B0A3
:10126000064614216846FFF733F921493068884261
:101270003CD120480025016841F48061016000688C
:1012800000F4806005901B481438016841F020018B
:1012900001600068694600F0200005901020009071
:1012A0000320CDE90105144800F03CFE144C13481E
:1012B00020608005C4E901050014C4E90350400022
:1012C00060618000C4E9060525622046656200F081
:1012D000BFFC08B1FFF755FEB463002205211220C0
:1012E000A66300F0E7FF122000F0D6FF06B070BD45
:1012F00000220140443802400014024010640240C1
:10130000B40B002090F82020012A07D0022A05D033
:10131000416A41F4802141620120704700684269BE
:101320000A43426100207047F0B590F820500468ED
:10133000A468012D05D0022D03D0416A41F480211B
:1013400053E014F0406F01D1E5004BD5C4F30164C4
:10135000022C03D9416A41F4000146E00125A54071
:101360001D608D684FF4C0739DB1CE6835434E68E3
:1013700045EAC605066803EB0417F5514FF4C2753C
:10138000076805EB04150E697E51097D012905D01A
:1013900009E00E88CD6845EA4655EBE701684E59ED
:1013A00046F480764E511179D2F805504FF4C67646
:1013B00041EA0525016806EB04168D511178D2F833
:1013C00001204FF4C47541EA0221026805EB0415BF
:1013D0005151006803EB0411425842F0010242509F
:1013E0000020F0BD416A41F4001141620120F0BDCE
:1013F00010B590F82020012A07D0022A05D0416AB2
:1014000041F480214162012010BD3B48D0F8002208
:1014100042F00102C0F80022D0F8002222F47C52EF
:10142000C0F80022D0F800224B6A42EA0322C0F83A
:1014300000220A7D02F01F0301229A40D0F81C32DC
:101440009343C0F81C32CB69B3B9D0F80C32934344
:10145000C0F80C328C894B6864F31F434C6900EB75
:10146000C404C4F840320C890B6864F31F434C6910
:1014700000EBC404C4F84432CB69012B16D1D0F878
:101480000C321343C0F80C320C884B6864F31F43D2
:101490004C6900EBC404C4F840320C89CB6864F397
:1014A0001F434C6900EBC404C4F844328B69002B21
:1014B000D0F804320ED01343C0F804320B69002B6D
:1014C000D0F8143208D01343C0F81432096A012945
:1014D00004D008E09343EFE79343F5E7D0F81C12FC
:1014E0001143C0F81C12D0F8001221F00101C0F81D
:1014F0000012002010BD000000640040704730B5AD
:1015000090F82040012C05D0022C03D0416A41F410
:1015100080215DE00468002955D02469A40754D0D7
:101520004FF4D874056804EB01142D5915F0040527
:10153000956005682D594ED0ED08556005682C5909
:1015400004F00204D4604FF4DA74056804EB01146B
:101550002D5905F00F05156105682D59C5F30725AF
:10156000956105682C59240C54614FF4DC720468B1
:1015700002EB0112A4581C700468A458240A5C7081
:101580000468A458240C9C700468A258120EDA70E7
:101590004FF4DE72046802EB0112A4581C71046857
:1015A000A458240A5C710468A458240C9C71046833
:1015B000A258120EDA71006881B1016941F0200170
:1015C0000161002030BDE468A8E7416A41F40011E0
:1015D0004162012030BD6D0D1560AFE7C16841F07B
:1015E0002001C160EDE72DE9F05F054600680024A9
:1015F0004669D0F804908768D0F80CB0D0F810A0F5
:10160000D0F81880F10748D0F90714D00121816083
:10161000B80703D5284600F0EAF90CE0780702D5B0
:101620004FF4006407E0380702D54FF4805402E01D
:10163000284600F0DBF9F80516D529684FF48070CC
:101640008860B80503D5284600F0D3F90CE078058A
:1016500002D544F4005407E0380502D544F4804430
:1016600002E0284600F0C4F9F80316D529684FF4C3
:1016700080308860B80303D5284600F0BCF90CE040
:10168000780302D544F4004407E0380302D544F45B
:10169000803402E0284600F0ADF9300707D55FEA54
:1016A000CB6004D52968102044F40074C86070072A
:1016B0004FF0080707D55FEA0B7004D52868C760AC
:1016C000284600F061F9B00706D52868C068800791
:1016D00002D0284600F059F9700607D55FEACA60C3
:1016E00004D52968102044F480640861B00607D549
:1016F0005FEA0A7004D528680761284600F046F9B9
:10170000F00606D528680069800702D0284600F058
:101710003EF9B00308D55FEAC96005D529681020F5
:101720004860284600F034F9F00307D55FEA0970F5
:1017300004D528684760284600F05EF9300446D595
:101740005FEA497040D5F00504D55FEAC87001D062
:1017500044F00104B00504D55FEA887001D544F077
:101760000204700504D55FEA487001D544F0040412
:10177000300529D518F0700F26D008F070004028E9
:1017800015D006DC102809D020280AD0302816D120
:101790000AE050280ED0602811D10EE044F0080471
:1017A0000DE044F010040AE044F0200407E044F0A7
:1017B000400404E044F0800401E044F480742868AC
:1017C000816921F070018161296804204860002C42
:1017D00005D0686A204368622846FFF78FFEBDE89F
:1017E000F09F70B5040003D094F8200010B104E01D
:1017F000012070BD204600F081F82068016841F0AA
:101800000101016000F098FC0546052604E000F0A7
:1018100093FC401B0A2811D820684068C007F6D006
:101820002068016821F00201016000F085FC054696
:101830000BE000F081FC401B0A2806D9606A40F4E6
:101840000030606284F82060D2E72068406880073A
:10185000EFD4207E0128206801683DD021F080016E
:101860000160607E01282068016838D021F04001C5
:101870000160A07E01282068016833D021F020019A
:101880000160E07E0128206801682ED041F010013F
:101890000160207F01282068016829D021F008011B
:1018A0000160607F01282068016824D021F00401D4
:1018B0000160D4E902010843D4E90412114308434A
:1018C0006168491E08432168C861002060620120E8
:1018D00084F82000002070BD41F08001C0E741F095
:1018E0004001C5E741F02001CAE721F01001CFE730
:1018F00041F00801D4E741F00401D9E710B586B002
:10190000044614216846FEF7E3FD1C49206888421E
:1019100031D11B480021026842F000720260006869
:1019200000F00070059016481038026842F002027C
:101930000260006800F0020005904FF440700090D3
:101940000220CDE90101032003900920049069469B
:101950000C4800F0E7FA00220821132000F0AAFC4E
:10196000132000F099FC00220821142000F0A2FCB2
:10197000142000F091FC06B010BD0000006400408F
:10198000403802400004024070477047704770477B
:101990007047000070B5044690F82000012804D07C
:1019A000606A40F40020606218E0022084F82000A1
:1019B0002068016821F00101016000F0BDFB0546CF
:1019C0000EE000BF00F0B8FB401B0A2808D9606A8F
:1019D00040F400306062052084F82000012070BDD2
:1019E00020684068C007EDD1606270BD70477047E5
:1019F000704770477047704770472DE9F0410446C3
:101A0000876D00F099FB064694F835000025022802
:101A100006D08020606584F834500120BDE8F08154
:101A20002068016821F0160101602068416921F0F9
:101A300080014161206C08B9A06C20B12068016868
:101A400021F0080101602068016821F001010160B6
:101A50000CE000F071FB801B052807D92020606591
:101A6000032084F8350084F83450D7E720680068F4
:101A7000C007EED194F85C103F208840B860012088
:101A800084F8350084F834500020C7E790F835100A
:101A9000022903D08021416501207047052180F88B
:101AA00035100068016821F00101016000207047D5
:101AB0002DE9F84304464FF00009CDF80090634843
:101AC0004FF41651A56D0068B0FBF1F72E6894F83D
:101AD0005C10082000FA01F131420FD021680A6839
:101AE00052070BD50A6822F004020A6094F85C10D1
:101AF0008840A860606D40F00100606594F85C105B
:101B00004FF0010808FA01F0304208D02168496915
:101B1000090604D5A860606D40F00200606594F885
:101B20005C1004208840304208D021680968890789
:101B300004D5A860606D40F00400606594F85C1006
:101B400010208840304218D021680968090714D550
:101B5000A86020680168490304D50068000308D51F
:101B6000A16C07E00168C90503D4016821F00801F0
:101B70000160216C09B12046884794F85C10202050
:101B80008840304231D021680968C9062DD5A86047
:101B900094F8350005282068016806D0490347D528
:101BA000006800031DD4616C1CE021F01601016087
:101BB0002068416921F080014161206C08B9A06C66
:101BC00020B12068016821F00801016094F85C10E0
:101BD0003F208840A86084F8358084F83490216DD7
:101BE0001FE0E16B09B120468847606D00282BD0CB
:101BF000606DC00714D0052084F8350020680168A6
:101C000021F0010101600098401C0090B84203D807
:101C100020680068C007F6D184F8358084F83490D5
:101C2000E16C002910D001B02046BDE8F043084720
:101C30000168C905D5D4016821F01001016084F85C
:101C4000358084F83490CCE7BDE8F8833400002078
:101C50002DE9F041044600F06FFA06465CB102201F
:101C600084F83500002584F834502068016821F09C
:101C7000010101600DE00120BDE8F08100F05CFA97
:101C8000801B052805D920206065032084F83500D5
:101C9000F2E720680068C007F0D122681168204888
:101CA0000140D4E901031843D4E903363343184310
:101CB00063691843A3691843E3691843236A184307
:101CC0000843616A042903D1D4E90B13194308437B
:101CD000106020684069666A20F0070130460E43B4
:101CE000012704280CD1A06A0643E06A40B12046CF
:101CF000FFF7A2F820B14020606584F83570BAE79C
:101D0000206846612046FFF783F894F85C203F2165
:101D100091408160656584F835700020ACE7000073
:101D20003F8010F02DE9F0410446866D90F83400B4
:101D3000002501280DD0012084F8340094F8357076
:101D40000020012F07D084F8340002252846BDE882
:101D5000F0810220FBE7022784F835706065204699
:101D6000FFF794F894F85C103F208840B06020683A
:101D7000016841F016010160206C20B12068016803
:101D800041F0080101602068016841F00101016033
:101D9000DCE7000070B5044600F0CEF90546601C93
:101DA00002D004480078044400F0C6F9401BA04269
:101DB000FAD370BD280000202DE9F05F4FF4804178
:101DC000DFF80C91DFF80C81434FDFF810A10126FA
:101DD0000025434C4FF4006B884227D1414800F066
:101DE00099F938B1002208213F4800F0A0F9A07805
:101DF00010B104E00122F6E7A9F8086066705946C0
:101E0000504600F087F900B9A570A078E070374817
:101E100088F800503E700570354836490580458089
:101E20008580022088812670BDE8F09F2C4A4FF4FF
:101E300080518842927827D1042A01D12E48067019
:101E4000504600F067F950B1002280212B4800F085
:101E50006EF95946504600F05DF910B102E00122DA
:101E6000F3E7A670A078E070264888F800509FED50
:101E7000240A3E7080ED000A257060780028D3D0D7
:101E8000A9F808506570CFE7012806D0032158450E
:101E90000ED1A17088F80060C6E701220421124823
:101EA00000F045F94FF47A70FFF774FF03F0A4FCDB
:101EB000B0F5005F02D0B0F5004FB5D112B1A170FE
:101EC0003D70B1E7104800880C28F8D1ACE700005D
:101ED00030060020D4000020D50000200000024081
:101EE00000000020001C0240001002407B01002086
:101EF00030090020CC0700206C01002000200240A7
:101F000000000000E8000020DE000020044910B5B9
:101F10000A68024202D00860FFF74EFF10BD0000C1
:101F2000143C01402DE9F84FDFF8BCA10022012547
:101F300003264FF00F090AF1040BAAF1040E00BFAB
:101F40000B6805FA02F42340A34270D10F7907F021
:101F50000307012F01D0022F16D187684FEA4208EC
:101F600006FA08FC27EA0C07D1F80CC00CFA08FCAA
:101F70004CEA070CC0F808C04768A7430C79C4F3C3
:101F8000001494403C4344600C79E443A4070AD015
:101F9000C4684FEA420C06FA0CF7BC438F6807FA94
:101FA0000CF72743C7600C7904F00304022C12D10C
:101FB000D40800EB840CDCF820405707FF0E09FA28
:101FC00007F824EA0804D1F8108008FA07F848EA6C
:101FD0000408CCF8208004684FEA420C06FA0CF79B
:101FE000BC430F7907F0030707FA0CF72743076094
:101FF0004C6814F4403F70D03C4C276847F480474D
:102000002760246822F0030704F480440094384CCD
:1020100007EB040CDCF8084897074FEA177809FA31
:1020200008F7BC43334FB84202D1002724E054E004
:10203000314FB84201D101271EE0304FB84201D1E3
:10204000022719E02E4FB84201D1032714E02D4F8B
:10205000B84201D104270FE02B4FB84201D1052728
:102060000AE02A4FB84201D1062705E0284FB842BE
:1020700001D1072700E0082707FA08F72743CCF823
:102080000878DAF800405746D1F804C09C435FEA6C
:10209000CC2C00D51C433C60DBF800405F46D1F8F7
:1020A00004C09C435FEA8C2C00D51C433C60DEF8E6
:1020B00000407746D1F804C09C435FEA8C3C00D5D1
:1020C0001C433C60084F083F3C68D1F804C09C4367
:1020D0005FEACC3C00D51C433C60521C102AFFF444
:1020E0002FAFBDE8F88F0000083C014044380240A3
:1020F000003001400000024000040240000802409D
:10210000000C02400010024000140240001802407F
:10211000001C02400069084000D00120704742695D
:1021200021EA02030A4043EA0241816170470AB191
:10213000816170470904FBE701488068704700002F
:102140002800002090F83C10012912D0012100F84D
:102150003C1F2421417050F83C1CCA6822F00C023C
:1021600042F00402CA60202141700021017008463B
:1021700070470220704790F83C10012912D00121CD
:1021800000F83C1F2421417050F83C1CCA6822F022
:102190000C0242F00802CA60202141700021017047
:1021A000084670470220704702488168027811444F
:1021B00081607047280000200B4810B5016841F489
:1021C00000710160016841F480610160016841F4BF
:1021D00080710160032000F08DF80F2000F006F8F8
:1021E00000F03EF8002010BD003C024010B5014652
:1021F00088B000222D2000F05DF82D2000F04CF872
:1022000013480024016841F480710160006805A949
:1022100000F480700690684600F018F900F036F976
:102220000C494000B0FBF1F10C480B4A491E02601A
:1022300040F2E732C0E90324C0E9011400F02EFBAC
:1022400010B1012008B010BD044800F073FBF9E79D
:102250004038024040420F0000200040041100209E
:102260000C4882B0016841F480410160006800F4CC
:10227000804000900748001F016841F080510160D4
:102280000068002200F0805000900F21901E02B0E4
:1022900000F010B844380240002809DB00F01F02AB
:1022A000012191404009800000F1E020C0F80011B8
:1022B00070470000F0B40E4B1B680C46C3F30223BA
:1022C000C3F10705042D00D90425191D072901D2E2
:1022D000002300E0DB1E012606FA05F1491E21401D
:1022E00099409E40761E16403143F0BC03F073BA0D
:1022F0000CED00E0064900F0070208684FF6FF0306
:10230000184040EA0220034A10430860704700006A
:102310000CED00E00000FA052DE9F0470E4605003F
:1023200065D0DFF81481D8F80000F7B200F007009C
:10233000B04207D288F80070D8F8000000F007001B
:10234000B04254D128683D4C810712D5400703D5CF
:10235000206840F4E05020602878000703D520680A
:1023600040F4604020602068A96820F0F000084335
:1023700020602878C0072DD03049686808390128C6
:1023800012D0022813D0032811D009688907002928
:102390002DDA216821F0030101432160FFF7CCFE13
:1023A000814641F2883A0EE009688903EFE709683F
:1023B0008901ECE7FFF7C0FEA0EB0901514502D906
:1023C0000320BDE8F0872068696800F00C00B0EBDE
:1023D000810FEFD1D8F80010404601F00701B1425B
:1023E00007D90770006800F00700B04201D0012053
:1023F000E7E72878400705D52068E96820F4E05031
:10240000084320602878000706D52068296920F451
:10241000604040EAC100206000F058F82168084A96
:10242000C1F30311515CC8400649086006480068C2
:10243000FFF7DCFE0020C4E7003C02400838024001
:102440006C860008340000202C0000200F2202605F
:102450000C4A136803F003034360136803F0F003AE
:102460008360136803F4E053C36012684FF4E053D1
:1024700003EAD20202610448006800F00700086025
:102480007047000008380240003C024004480549FB
:1024900000680968044AC1F38221515CC840704752
:1024A00034000020083802407C86000804480549B2
:1024B00000680968044AC1F34231515CC840704762
:1024C00034000020083802407C860008154810B50A
:1024D000006810F00C02144813D04110042A0FD0E9
:1024E000082A0ED10F4C241F2268236802F03F02F5
:1024F0005B0207D52068C0F38810A0FB010106E04D
:10250000084610BD2168C1F38811A1FB000100231A
:10251000FDF71AFF2168C1F30141491C4900B0FBD6
:10252000F1F010BD083802400024F4002DE9F84F06
:1025300004006ED02078DFF84C93C007A9F10405A1
:102540004AD009F104000168C1F38101012908D0D2
:102550000068C0F3810002280AD1D9F800004002C7
:1025600006D52868800337D560680028E1D033E0BD
:102570006068B0F5803F10D0B0F5A02F286810D06B
:1025800020F480302860286820F48020286060686B
:10259000A8B1FFF7D1FD06460DE0286840F4803071
:1025A000F4E740F480202860F7E700BFFFF7C4FDA0
:1025B000801B642873D828688003F7D50CE0FFF7E8
:1025C000BBFD064605E000BFFFF7B6FD801B642893
:1025D000F0D828688003F7D42078DFF8AC82800731
:1025E0004FF0000A3ED5A748001D016811F00C0FFE
:1025F00008D00068C0F3810002280BD1D9F8000090
:10260000400207D42868800716D5E068012800D169
:1026100012E033E1E068B8B10120C8F80000FFF72C
:102620008BFD064605E000BFFFF786FD801B0228F4
:10263000C0D828688007F7D52868216920F0F800FD
:1026400040EAC10028600DE0C8F800A0FFF774FD63
:10265000064604E0FFF770FD801B02281FD828689B
:102660008007F7D42078000722D5864F8748616914
:10267000703771B101210160FFF75EFD064604E08D
:10268000FFF75AFD801B022809D838688007F7D564
:102690000EE0C0F800A0FFF74FFD064605E082E01F
:1026A000FFF74AFD801B02287DD838688007F7D4E1
:1026B0002078400768D5DFF8CCB100270BF13C0B40
:1026C000DBF80000C0000BD4DBF8001041F08051B3
:1026D000CBF80010DBF80000012700F080500090DC
:1026E0006B4E3068C00510D4306840F480703060A4
:1026F000FFF722FD009005E0FFF71EFD0099401A4C
:10270000022850D83068C005F6D55E4EA0686C36F9
:1027100001280FD00528306810D020F0010030606B
:10272000306820F004003060A068B8B1FFF704FD05
:1027300000900FE0306840F00100F4E740F0040042
:102740003060F7E7FFF7F8FC0099411A41F2883052
:10275000814266D830688007F4D50EE0FFF7ECFCC4
:10276000009007E0FFF7E8FC0099411A41F2883039
:10277000814256D830688007F4D42FB1DBF80010BE
:1027800021F08051CBF80010A069C8B33D49091D64
:102790000968C1F3810102294AD00228504607D0B6
:1027A000C8F8600000E03CE0FFF7C6FC04463BE0F0
:1027B0004746C8F86000FFF7BFFC064605E000BFCB
:1027C000FFF7BAFC801B02282BD828688001F7D4B9
:1027D000D4E907010843A16A2E4A490802EB0141E6
:1027E000626A41EA8211084394F82C1040EA0161C0
:1027F000C9F8001001203866FFF79EFC044606E089
:102800003EE000BFFFF798FC001B022809D82868AB
:102810008001F7D534E000BFFFF78EFC001B0228D3
:1028200002D90320BDE8F88F28688001F4D427E09E
:102830000128F7D0D9F80000E26900F48001914244
:102840001CD1226A00F03F01914217D147F6C071B6
:10285000626A0140B1EB821F10D1A26A4FF0FF33D0
:1028600000F4403103EB5202B1EB024F06D194F871
:102870002C1000F07060B0EB016F01D00120D1E7A7
:102880000020CFE70438024000004742800E474254
:10289000007000400000FFFF7047704710B5040053
:1028A00003D094F83D0010B107E0012010BD0020D6
:1028B00084F83C00204600F01FF8022084F83D0018
:1028C000211D206802F03EFC012084F8460084F8B7
:1028D0003E0084F83F0084F8400084F8410084F80A
:1028E000420084F8430084F8440084F8450084F8EA
:1028F0003D00002010BD000008B500680B4988426B
:1029000012D10B48016841F4803101600068002257
:1029100000F48030009005211820FFF7CBFCBDE8C3
:1029200008401820FFF7B8BC08BD00000040014077
:102930004438024090F83D10012901D00120704731
:10294000022180F83D100168CA6842F00102CA60A5
:1029500000681149884214D0B0F1804F11D00F495E
:1029600088420ED00E4988420BD00E49884208D0CA
:102970000D49884205D00D49884202D00C49884251
:1029800004D1816801F00701062903D0016841F0F4
:102990000101016000207047000001400004004078
:1029A00000080040000C00400004014000400140CD
:1029B0000018004070B5044690F83C00002501283E
:1029C00017D0012684F83C60022084F83D0020687E
:1029D000826822F0770222F47F42826008685028E1
:1029E00038D00DDC20284FD005DC90B3102811D151
:1029F0004AE0022070BD302846D040280AD13BE092
:102A000060282FD070280DD0B0F5805F03D0B0F5CE
:102A1000005F12D0012584F83D60002084F83C005E
:102A2000284670BDCB68D1E90121206802F0EEFB99
:102A30002068816841F0770109E0CB68D1E9012184
:102A4000206802F0E3FB2068816841F480418160E6
:102A5000E1E719E0CA684968206802F0E9FB502103
:102A6000206806E0CA684968206802F0F2FB60212D
:102A7000206802F0D5FBCEE7CA684968206802F0FA
:102A8000D7FB40212068F4E7226801461046F0E7B2
:102A9000704770B50446006801694FF00005C943EE
:102AA000890715D4C168C943890711D4E91E01619A
:102AB00001202077206880698007204602D0FFF738
:102AC000E7FF04E000F098F8204600F096F825773C
:102AD00020680169C943490717D4C168C943490738
:102AE00013D46FF00401016102202077206880690F
:102AF00010F4407F204602D0FFF7CAFF04E000F048
:102B00007BF8204600F079F8257720680169C943F1
:102B1000090716D4C168C943090712D46FF0080128
:102B20000161042020772068C0698007204602D018
:102B3000FFF7AEFF04E000F05FF8204600F05DF81C
:102B4000257720680169C943C90617D4C168C943FC
:102B5000C90613D46FF010010161082020772068A6
:102B6000C06910F4407F204602D0FFF791FF04E0D7
:102B700000F042F8204600F040F82577206801690F
:102B8000C943C90708D1C168C943C90704D1891E0F
:102B90000161204600F032F820680169C943090646
:102BA00009D4C168C943090605D46FF080010161E9
:102BB0002046FFF771FE20680169C943490609D420
:102BC000C168C943490605D46FF040010161204640
:102BD00000F0FEF820680169C94389060BD4C1687A
:102BE000C943890607D46FF0200101612046BDE882
:102BF0007040FFF752BE70BD704770472DE9F05F1F
:102C0000044600685C49884201D1FFF7CDFA5B4970
:102C1000206888427ED15A495A4C5B4B0878401C48
:102C2000C5B20D70A678012E02D11878401C18701C
:102C300056480268521C0260B2F5967F02D94FF4E2
:102C40007A720260524816B90268521C0260514AF8
:102C5000127842B1504A1678761CF6B21670FA2EE7
:102C600001D3FF2616701E780322962E02D9A27079
:102C7000AA261E7014230F2D00D90B7047490D781A
:102C80000F2D00D90B70016840F2DC53994202D934
:102C900040F6AC510160424DDFF808810127B5F8DC
:102CA0005000012802D1A27088F80070B5F85200D7
:102CB0000026DFF8F490DFF8F4A04FF4006B012851
:102CC00021D181033A48FFF725FA50B100220821AB
:102CD0003848FFF72CFA59465046FFF71BFA10B157
:102CE00002E00122F3E7A670A078E070A5F850603A
:102CF000314888F8006089F8007006702F49A5F8FF
:102D0000526002208881B5F85400012827D1A078AC
:102D1000042800E02EE001D1294807704FF48051CB
:102D20005046FFF7F7F950B1002280212548FFF700
:102D3000FEF959465046FFF7EDF910B102E00122C5
:102D4000F3E7A770A078E070204888F800609FED56
:102D50001E0A89F8007080ED000AA5F85460B5F8E5
:102D60005600012806D1012204211248FFF7DFF99D
:102D700002F042FDBDE8F09F00200040004001400D
:102D8000D200002000000020D1000020F800002028
:102D90007C010020C4000020C7000020D3000020D8
:102DA00030060020D4000020D500002000000240A2
:102DB000001C0240001002407B010020CC070020D4
:102DC0006C0100200020024000000000E80000200C
:102DD000704738B5044690F83E00202822D181B1D2
:102DE0007AB194F83C0001281CD0012084F83C0002
:102DF0002063204602F06EFC002803D1216B0129DC
:102E000001D0012038BD21680A6849680091216815
:102E10000C3151E8002F42F0100241E80023002B52
:102E2000F5D138BD022038BD7CB52B4C036800229B
:102E3000A34201D1294B03E0294CA34201D1294BE4
:102E40001A702A4B01920024274D1B7836E000BFF0
:102E500055F82460766886422FD155F8240090F802
:102E60004031042B2CD139B380F83E1155F82400A1
:102E700080F83F2102E000BF00F08AF855F82430C6
:102E8000802203F1BC015868FFF7A3FF002855F822
:102E900024004068F0D1806B0068016821F00801CF
:102EA000016001A8009055F8240000230322D0F807
:102EB000AC00194604F004FE02E0641C9C42C7DB2F
:102EC0000198002807D00A494FF080500860BFF3EE
:102ED0004F8FBFF36F8F7CBD00500040D2000020A9
:102EE00000140140D30000207C5A0020A8010020DB
:102EF00004ED00E07047000070B5044620680C3017
:102F000050E8001F21F4907140E80012002AF5D12A
:102F10002068143050E8001F21F0010140E8001241
:102F2000002AF5D1206B012809D120680C3050E827
:102F3000001F21F0100140E80012002AF5D120689E
:102F400040694FF0200241064FF0000015D521687E
:102F5000143151E8003F23F0400341E80035002DD3
:102F6000F5D1A16B49B109480865A06BFEF78EFD4C
:102F700050B1A06B016D884706E0E08584F83E20E3
:102F800020632046FFF7B6FF002070BD3B540008C9
:102F900010B504460068406994F83D10C0F3C010B5
:102FA000212911D180B12068143050E8001F21F090
:102FB000800140E80012002AF5D1606B08B1FEF7ED
:102FC0001CFD204602F091FA2068406994F83E10FA
:102FD000C0F38010222911D180B12068143050E84C
:102FE000001F21F0400140E80012002AF5D1A06B3B
:102FF00008B1FEF702FD204602F050FA002010BD95
:1030000070B516490024144D097822E055F82420A3
:10301000526882421CD155F8240090F840010428DF
:1030200002D070BDFFF7B4FF55F82430802203F1C1
:10303000BC015868FFF7CDFE002855F82400406811
:10304000F0D1806B0068016821F00801016070BD5B
:10305000641C8C42DADB70BD7C5A0020A801002081
:1030600010F83D1F4078084370470000F8B501682C
:1030700004460868CA684B6910F00F0F4FF000054E
:1030800059D003F0010602F49077374365D0C107A9
:1030900005D0D10503D5216C41F001012164410720
:1030A00005D5D90703D0216C41F0020121648107C5
:1030B00005D5D90703D0216C41F004012164010733
:1030C00007D502F02001314303D0216C41F0080103
:1030D0002164216C00293AD0800604D5900602D5DF
:1030E000204602F010FA20684069216CC0F380107D
:1030F000090700D460B3204602F0D0F92068406987
:10310000400621D52068143050E8001F21F040010E
:1031100040E80012002AF5D1A06BA8B16C49016506
:10312000A06BFEF7B3FC002811D0A06B016D01B0BD
:10313000BDE8F040084783060FD593060DD520461D
:10314000BDE8F84002F0DFB92046FFF759FFF8BDAF
:103150002046FFF755FF2564F8BD266B2023012E7E
:1031600079D1C60677D5D60675D508684868009027
:103170004869400640D5A16B086840680004000C0F
:10318000EAD0A28D8242E7D9E085C869B0F5807F98
:103190002DD020680C3050E8001F21F4807140E8E9
:1031A0000012002AF5D12068143050E8001F21F0E9
:1031B000010140E80012002AF5D12068143050E8DF
:1031C000001F21F0400140E80012002AF5D184F8E8
:1031D0003E30256320680C3050E8001F21F01001BC
:1031E00040E80012002AF5D1A06BFEF706FCA08D86
:1031F000E18D401A81B229E0A08DE18D401A81B2A3
:10320000E08D0028A8D00029A6D020680C3050E816
:10321000002F22F4907240E80026002EF5D120689D
:10322000143050E8002F22F0010240E80026002E62
:10323000F5D184F83E30256320680C3050E8002F2B
:1032400022F0100240E80023002BF5D12046FFF7C2
:10325000EBFDF8BDFFE705062BD5150629D594F83B
:103260003D002128F5D1A068B0F5805F01D120692B
:10327000B0B1206A411C2162216800784860E08C6E
:10328000401E0004000CE084E3D12068C16821F0F6
:103290008001C1602068C16841F04001C160D8E789
:1032A000206A0088C0F308004860206A801C206201
:1032B000E5E74006CDD55006CBD5CA68204622F0BA
:1032C0004002CA6084F83D3000F066FBC1E70000B0
:1032D0004553000870B5040004D094F83D00002563
:1032E00010B106E0012070BD84F83C50204600F08B
:1032F00023F8242084F83D002068C16821F400519F
:10330000C160204602F060F92068016921F4904113
:1033100001612068416921F02A0141612068C1688A
:1033200041F40051C1602564202084F83D0084F8F8
:103330003E00002070BD00002DE9F04F87B004462C
:1033400014216846FDF7C4F8FF48DFF8F883103809
:10335000D4F800C0FC4A022103270823DFF8ECE37D
:10336000002506154FF040094FF0006AC4454AD1C8
:10337000D2F800C04CF4002CC2F800C0126802F46D
:1033800000220592026842F0040202600068049381
:1033900000F004000590B8028DE8A300694670466D
:1033A000FEF7C0FDEB4FEA483860C7E901A5C7E961
:1033B00003567D61BD61FD613D6238467D62FEF769
:1033C00047FC08B1FDF7DDFDA763BC63E24FE048B1
:1033D000C7F80890C7E903567D61BD61FD613D6294
:1033E00030307D62C7E9000A3846FEF731FC08B18B
:1033F000FDF7C7FD6763002205213420BC63FEF79B
:1034000059FF342074E0DFF85483C44576D1D2F8F4
:1034100000C0A8464CF4801CC2F800C0126802F438
:1034200080120592026842F004020260026802F013
:1034300004020592026842F00802026000680295E8
:1034400000F0080005904FF48050CDE900010820FD
:10345000CDE903708B4669467046FEF763FD042094
:10346000CDE9000B02950820CDE903706946BC4800
:10347000FEF758FDB649DFF8ECB230395846CBF8C4
:103480000010C0E901A5C0E90356CBF81450CBF8F1
:103490001850CBF81C50CBF820505746CBF824508E
:1034A000FEF7D6FB08B1FDF76CFDA948AE4DC4F898
:1034B00038B07830CBF8384085E88102C5E903861A
:1034C000C5F81480C5F81880C5F81C80C5F82080A0
:1034D0002846C5F82480FEF7BBFB08B1FDF751FD77
:1034E0006563002205213520AC63FEF7E3FE35203D
:1034F000FEF7D2FE07B0BDE8F08FFFE7DFF86C8281
:103500004FF0070BC44558D18F4AA846121D1368C7
:1035100043F010031360126802F010020592026873
:1035200042F001020260006800F0010005904FF4D3
:10353000C0608DE8A30869468D48FEF7F3FCDFF80C
:1035400038B28C495846CBF80010C0E901A5C0E953
:103550000356CBF81450CBF81850CBF81C50CBF8CE
:1035600020505746CBF82450FEF772FB08B1FDF708
:1035700008FD8048814DC4F838B07830CBF8384029
:1035800085E88102C5E90386C5F81480C5F818806E
:10359000C5F81C80C5F820802846C5F82480FEF7B1
:1035A00057FB08B1FDF7EDFC6563002205212520DE
:1035B000AC63FEF77FFE25209AE7DFF8C481C4459F
:1035C00056D11368A84643F400331360126802F41E
:1035D00000320592026842F008020260006800F0C2
:1035E0000800059060208DE8A30869465C48FEF756
:1035F00099FC5749DFF88CB148315846CBF8001098
:10360000C0E901A5C0E90356CBF81450CBF8185017
:10361000CBF81C50CBF820505746CBF82450FEF77F
:1036200017FB08B1FDF7ADFC4948574DC4F838B059
:103630006030CBF8384085E88102C5E90386C5F8DB
:103640001480C5F81880C5F81C80C5F8208028466D
:10365000C5F82480FEF7FCFA08B1FDF792FC65631B
:10366000002205212620AC63FEF724FE26203FE73A
:10367000DFF81881C44549D1136843F480231360EF
:10368000126802F480220592026842F00802026089
:10369000006800F0080005904FF440708DE8A30822
:1036A00069462F48FEF73EFC2948394F18383860E4
:1036B000C7E901A5C7E903567D61BD61FD613D62B2
:1036C00038467D62FEF7C4FA08B1FDF75AFCA763DD
:1036D000BC63304F1E48C7F80890C7E903567D61A8
:1036E000BD61FD613D6218307D62C7E9000A384660
:1036F000FEF7AEFA08B1FDF744FC6763002205212E
:103700002720BC63FEF7D6FD2720F1E6224A944528
:103710007FF4F0AE0C4A121DD2F800C04CF0200C21
:10372000C2F800C0126802F020020592026842F05E
:10373000040202600068049300F004000590C020B9
:103740002CE00000004C00404038024000080240DD
:1037500040600240140C0020740C00200050004017
:10376000000C0240D40C0020340D00200010014059
:103770000000024040640240940D0020F40D00203F
:1037800000440040540E0020B40E002000480040C9
:10379000140F0020740F0020001401408DE8A300D6
:1037A00069467046FEF7BEFB194F18484FF0206877
:1037B0003860C7E90185C7E903567D61BD61FD61D8
:1037C0003D6238467D62FEF743FA08B1FDF7D9FB4A
:1037D000A763BC630F4F0D48C7E903567D61BD6108
:1037E000FD613D6278307D6287E801033846FEF76F
:1037F0002FFA08B1FDF7C5FB6763002205214720BA
:10380000BC63FEF757FD472072E6000028640240C3
:10381000D40F00203410002090F83E30202B0ED121
:1038200059B152B190F83C30012B08D0012380F8F7
:103830003C300023036301F097BF01207047022052
:10384000704700007CB500261D49019634461B4D8B
:10385000097825E055F82420526882421FD155F896
:10386000240090F8401101291CD190F8A610BC301A
:1038700000F0A2FF55F82430012203F1A601586898
:10388000FFF7CAFF04F0B8F90246009655F8240085
:1038900001AB0721D0F8B00004F07AFB02E0641C11
:1038A0008C42D7DB0198002807D006494FF08050A2
:1038B0000860BFF34F8FBFF36F8F7CBD7C5A002031
:1038C000A801002004ED00E07047000070B5044638
:1038D00090F83D00202836D191B38AB394F83C008B
:1038E000012830D0012084F83C002162A284E284C7
:1038F00000252564212084F83D00636B1348D863BC
:10390000636B13481864636B1248D864606B13468A
:1039100005652668606B321DFEF704FA21686FF0BA
:103920004000086084F83C502068143050E8001FC4
:1039300041F0800140E80012002AF5D1002070BD5E
:10394000FFE70120FBE70220F9E7000051540008DF
:10395000935400085553000890F83D30202B18D19F
:10396000A9B1A2B190F83C30012B12D0016282843F
:10397000C28400210164212280F83D2080F83C109F
:103980000068C16841F08001C160002070470120DB
:1039900070470220704700001CB5144B00210191B4
:1039A000114A1B7812E000BF52F82140646884423B
:1039B0000BD101A8009052F8210000231A46D0F83C
:1039C000AC00194604F07CF802E0491C9942EBDB9C
:1039D0000198002807D006494FF080500860BFF3D7
:1039E0004F8FBFF36F8F1CBD7C5A0020A8010020B1
:1039F00004ED00E07047FEE70C4810B5002141617E
:103A00000161016041608160C1600121C1610162A9
:103A100001460748FDF7ECFC0548FDF7BBFFBDE894
:103A2000104002210248FDF76DBC0000385A00200A
:103A3000840900207FB50024154800940194029465
:103A40001249039401604FF48031C0E9011404610C
:103A5000047680F820400F49C0E90A140125C561A9
:103A6000C46080F830404561FDF7CDFB08B172B607
:103A7000FEE70E20CDE90005694602940448FDF7F3
:103A800083FA002801D072B6FEE77FBD0022014014
:103A90003C0900200100000F0E4810B50C490160E0
:103AA0000C21416000214FF440328160C0E90312D3
:103AB0004FF480124261017641768176C1760177BA
:103AC0004177FDF78EFE002801D072B6FEE710BDEB
:103AD00000640040840900203D4808B5016841F4B5
:103AE00000110160016801F400110091016841F4C6
:103AF000800101600068002200F480000090052130
:103B00000B20FEF7D7FB0B20FEF7C6FB002205219A
:103B10000C20FEF7CFFB0C20FEF7BEFB0022052198
:103B20000D20FEF7C7FB0D20FEF7B6FB0022052196
:103B30000E20FEF7BFFB0E20FEF7AEFB0022052194
:103B40000F20FEF7B7FB0F20FEF7A6FB0022052192
:103B50001020FEF7AFFB1020FEF79EFB0022052190
:103B60001120FEF7A7FB1120FEF796FB002205218E
:103B70002F20FEF79FFB2F20FEF78EFB0022052152
:103B80003820FEF797FB3820FEF786FB0022052140
:103B90003920FEF78FFB3920FEF77EFB002205213E
:103BA0003A20FEF787FB3A20FEF776FB002205213C
:103BB0004520FEF77FFB4520FEF76EFB0022052126
:103BC0004620FEF777FBBDE808404620FEF764BBC1
:103BD0003038024010B50B4A00210B4802F0C6F8FD
:103BE0000A4C084A002160602432094802F0BEF8FD
:103BF000044AA06048320021064802F0B7F8E060AD
:103C000010BD0000F88500080D4C000818000020C9
:103C10004D4C00086D4B00082DE9F04F87B0142182
:103C20006846FCF755FCA148002400689F4940F015
:103C300010000860086800F010000590086840F463
:103C400080700860086800F480700590086840F093
:103C500004000860086800F0040005900846006849
:103C600040F020000860086800F020000590086817
:103C700040F080000860086800F080000590086847
:103C800040F008000860086800F008000590084649
:103C9000006840F001000860086800F0010005902D
:103CA000086840F040000860086800F04000059097
:103CB000086840F0020008600868DFF8F48100F04E
:103CC0000200059000220F214046FEF730FADFF88F
:103CD000E4B100224FF4F4715846FEF728FA0122AD
:103CE0004FF460615846FEF722FA01225703394625
:103CF0007148FEF71CFA00224FF4C0616F48FEF7CE
:103D000016FA012211466D48FEF711FADFF8B0A14C
:103D100040F28146002231465046FEF708FA002262
:103D200080216848FEF703FA0F2000900125CDE9B5
:103D30000154694640460394FEF7F4F84FF47E6060
:103D40000090CDE90154694658460394FEF7EAF81D
:103D50000097CDE90154694657480394FEF7E2F80D
:103D600040F201600090CDE9015469465348039444
:103D7000FEF7D8F80096CDE9015469465046039401
:103D8000FEF7D0F84FF400694FF44410CDF80090DE
:103D9000CDE90104DFF8308169464046FEF7C2F8FC
:103DA00028034FF40416CDE9000669460294404604
:103DB000FEF7B8F8CDE90074DFF810816946404697
:103DC0000294FEF7AFF8A803CDE900066946029415
:103DD0004046FEF7A7F80095CDE9016469465846CC
:103DE000FEF7A0F803204FF00808CDE90240CDE926
:103DF000008569465846FEF795F8CDF80080CDE974
:103E0000016469465046FEF78DF84FF42060CDE915
:103E10000004DFF8BC80694640460294FEF782F851
:103E20004FF42040CDE90006694602944046FEF773
:103E300079F880200090CDE9015469462148039427
:103E4000FEF770F80022A9025846FEF770F9012229
:103E500011461A48FEF76BF9012249465846FEF70B
:103E600066F9002269025846FEF761F901223946D7
:103E70001148FEF75CF9002205210620FEF71AFA28
:103E80000620FEF709FA002205210920FEF712FAA2
:103E90000920FEF701FA002205212820FEF70AFA80
:103EA0002820FEF7F9F907B0BDE8F08F303802405E
:103EB00000100240002002400008024000140240AE
:103EC000000C02400004024000000240001C0240BE
:103ED000001802401FB50021114800910191029184
:103EE0000E4A0391026041F26702C0E9012140F2EB
:103EF000CF72C0E903218161FEF7D0FC08B172B630
:103F0000FEE74FF48050009069460548FEF752FDE9
:103F1000002801D072B6FEE71FBD0000004001403E
:103F2000AC090020014A107051607047A0010020C8
:103F3000FEE7000038B52C4D044628780A2852D2F6
:103F400004F1BC0000F057FC2078032802D00428BC
:103F500008D0FEE7254A2146254801F007FFC4F8AE
:103F6000AC001EE0214A21462432224801F0FEFE28
:103F700044F8AC0F2048009034F80A1C00221FA01F
:103F8000A36803F0BBFFA060AC3C38B3174A102114
:103F9000183A0A2001F070FEC4F8A800F8B1D4F86D
:103FA000AC00E8B1194800900022022118A0D4F812
:103FB000B03003F0A3FFC4F8B00090B10B4A012168
:103FC0004832084601F084FEC4F8B80050B11349E5
:103FD000287841F82040401C287038BDFEE7FEE7F5
:103FE000FEE7FEE7FEE7FEE7A8010020A486000842
:103FF0004D4E0008094D0008356F00087854696D72
:10400000657254696D656F7574000000DD6E00089F
:1040100054696D6572543335000000007C5A0020ED
:104020000FB410B504460078042800D0FEE701F074
:104030009BFE069000231A4603A9D4F8A80003F0BB
:10404000D5F910BC5DF814FB10B5044690F840019A
:10405000012806D0032839D0022837D0042800D000
:10406000FEE7E06818B1218A0022FEF760F82078A8
:10407000032802D1D4F8980080B16068FEF7F0FF01
:104080002028FAD194F840010428606807D0012262
:1040900004F1A601FFF7C0FB78B1FEE7FEE780223E
:1040A00004F1BC01FEF795FE00B1FEE76068806B8D
:1040B0000068016821F008010160207A002820785A
:1040C00002D0042802D1FEE7032808D0002084F89B
:1040D000930004F8940FA0816081208110BDFEE759
:1040E000FEE7000070B53A4C3A4D0026207D287559
:1040F000608B322801D2AE8306E040F6C4118842BC
:1041000001D9A98300E0A883688B20803248B0F8E9
:1041100050106180B0F84A000A21B0FBF1F0A0F223
:104120001110A080E88B04F0F1F89FED2C1B53ECEC
:10413000112B04F0FFF89FED2B1B53EC112B03F018
:104140008DFF03F059FF00EE100A2248283001F0DD
:1041500082FB204828300188E18040882081288C1B
:10416000A0F5C8706081E87CE081204800780128D3
:1041700011D02682287D01210128A87A1FD003288A
:1041800023D1688B0C2820D11948007800281CD135
:10419000184806811AE01848417851B10021827808
:1041A0004AB10022C078114338B100200143218276
:1041B000E0E70121F3E70122F4E70120F6E7032815
:1041C00002D1628A012A01D0608270BDA97270BDDD
:1041D000CC070020C400002098040020BE9F1A2FA6
:1041E000DD24DE3F000000000050A9400200002056
:1041F0000100002030060020BC0000202DE9F05F07
:10420000FC48FD4C2DED0A8B0078E17A08439FEDC8
:10421000FB8AB3EE04CADFEDFA8A9FEDFA9ADFED6E
:10422000FA9ADFF8E8A3DFF8E8B3DFF8E89304F1DF
:1042300040074FF001064FF0000505D0DBF8000005
:1042400040F2DC51884208D94FF40071F248FDF782
:1042500061FF10B9F148007818B12079012816D013
:1042600018E0267165759AF8000008B9A9F8086089
:10427000E148E6723830B7F860100180B7F8621094
:104280004180B7F864108180B7F86610C180608BF8
:104290000C2814D0607D002812D0DBF8000040F21A
:1042A000DC5188420CD2207D58B1DD48818B002939
:1042B0007DD0A17A01294FD002295ED084E02571FA
:1042C00083E0B9F800104846C9B3E6720681A27AC5
:1042D000012A02D0022A11D077E099F80200207258
:1042E000C54837F83120383007EBC10102804A88D1
:1042F00042808A888280C988C18066E0E672B9F807
:104300000400BD4937F83020383107EBC0000A807F
:1043100043884B8083888B80C088C880608B0A2844
:104320000ED2218B02EB8200B1EB400F4DD100BFCA
:10433000FDF702FFE06225720320A07244E004E072
:10434000208B64328242F3D03FE0B649E5720978AF
:1043500061BBA9F8085038E0E6722672C08AA64907
:1043600037F83020383107EBC0000A8042884A8095
:1043700082888A80C088C88027E0E672028B8046E7
:104380009D4837F83210383007EBC202018053885D
:10439000438093888380D288C280608B0A2807D2AA
:1043A00001EB8100218BB1EB400F05D00DE02CE03B
:1043B000208B6431814208D1FDF7BEFEE062257298
:1043C0000320A072A8F81200E5728B4838300088EC
:1043D0000C2872D0608B002870D0DFF81C8208F1A6
:1043E0003808B8F800109FED90BB9FED91AB81426B
:1043F00036D94FF00302E2740C2829D00B2827D0BD
:1044000008280CD0092812D013E07B48A672257228
:104410003830E572058045808580C580DAE7A08B5D
:1044200003F074FF41EC100B53EC1B2B31E0A5752E
:1044300028E0A08BD4ED090A00EE100AB8EE400A7D
:1044400030EE480AB4EEE00AF1EE10FA2CDC36E069
:10445000A08B322848D9052943D19FED770A11E175
:1044600045D20A281ED90522E2740C282ED00B282A
:104470002CD00828D3D0092804D00628D9D1A07A76
:104480000228D6D1A08B03F041FF53EC1A2B41EC4C
:10449000100B51EC100B03F04DFF03F0ADFD08EED7
:1044A000100AC6E7E574E4E74FF4FA7001F0A8FBE0
:1044B00094ED090A30EE0C0AE4E0F9E0E5E000EEE4
:1044C000100AB8EE400A30EE480ADBE0A08B322832
:1044D0000AD9052905D184ED099ABDEC0A8BBDE8FE
:1044E000F09FC4ED098AF8E784ED098AF5E7A17A1F
:1044F000012916D00229F0D1A57594ED090A4F497A
:1045000010EE100A884273DDDFED4D0A642030EEB4
:10451000600A84ED090ABDEC0A8BBDE8F05F01F08A
:104520006FBBDFF820A102274FF400610A280DD0ED
:10453000B8F80600228B90425BD1E07C60B1A07994
:10454000401CC0B2A071042837D805E0A07DC8B1D6
:10455000606BB0F5967F17D9E5742F48FDF7DAFD4B
:104560000128BAD160790028B7D14FF42F7001F03B
:1045700047FBAAF80850A674A772FDF7DDFDE062BC
:104580006671AAE76563A67594ED090A2E4910EED7
:10459000100A884207DD30EE690A642084ED090ABA
:1045A00001F02EFB01E084ED099AB8F80600218B9A
:1045B00088427AD891D2E5748FE71A4A1078002899
:1045C000CAD117488781A571A9F80050A9F80250EF
:1045D000A9F80450A9F80650A9F808501B48E6713C
:1045E000A672057015704FF47A72CBF80020B3E70D
:1045F00046E02DE07A010020C40000200000000009
:10460000000048440000C8430000A0427901002097
:104610007C01002030060020001802407B010020B1
:10462000CC070020010000209A9999999999D93FC7
:10463000000000000000E03F000016440000484376
:10464000000048428C0B00200000C84302000020FC
:1046500094ED090A504910EE100A884207DD30EE49
:10466000690A642084ED090A01F0CAFA01E084EDC8
:10467000099AB8F80600218B884216D89BD32CE7FC
:104680009FED460A84ED090A27E7A07A012807D0A2
:104690004348032101704FF4CD7020841DE704E0EE
:1046A000E07C10B1032886D072E00320E07414E7A8
:1046B000608BB0B30C2835D0218B322914D9E57426
:1046C00028E000BFA08BD4ED090A00EE100AB8EE76
:1046D000400AF4EEC00AF1EE10FAFFF4E5AE00EE87
:1046E000100AB8EE400ACDE712D1E6740B2813D0B9
:1046F0002C49606A88427FF7F4AE4FF4FA7001F0FB
:104700007FFA94ED090AF1EE040A30EE600AB9E787
:104710000321E1740B28D5D1A08B32287FF6E4AEBB
:10472000DFE635E0204F38780028A8D14FF400515B
:104730001E48FDF7EFFC00281D499AF8000012D032
:1047400000B30D80A1F8025094ED090A124910EE51
:10475000100A884219DD30EE690A322084ED090A18
:1047600001F04EFA27E750B10D804D800C483E70A5
:10477000104905700320A0724882E572ADE60E80F4
:104780004E80F3E70E804E80DEE784ED099A12E753
:1047900084ED099A042089E70000C84300004843DB
:1047A00002000020000048447B010020001C024061
:1047B00030090020CC07002090F88120815490F827
:1047C0008110491C01F07F0180F8811090F882105F
:1047D000802906D0002280F88320491C80F88210AE
:1047E0007047012180F8831010F8801F491C01F0E8
:1047F0007F0101707047002100F8801F41708170B7
:10480000C170704790F88220AFF3008010B590F827
:10481000823013B10AB1802A01D9002010BD0023D3
:104820000DE000BF90F88040045DCC5490F88040CB
:10483000641C04F07F045B1C80F88040DBB2934270
:1048400003D290F882409C42ECD890F88210C91AAA
:1048500080F88210002180F88310FFF7CCFF184603
:1048600010BD00002DE9F0410F4604460026904699
:104870001D46D0F8B800711E02F064FF207A00B126
:10488000FF2694F8A70000B1FE2617F0FF0001D024
:10489000F72801D9F72600E05EB175B20023A574B0
:1048A0001A461946D4F8B80002F0A0FD2846BDE823
:1048B000F081C4F89850E074C7F30723380C2375CF
:1048C000010A61751FFA88F2A075170A06210026F1
:1048D000D0B2052B16D008DC012B11D0022B0FD043
:1048E000032B0DD0042B5FD10AE0062B13D04FF021
:1048F000070C04F113010F2B13D0102B54D133E00C
:10490000E7750CE0288800B1FF20E07584F8186096
:1049100084F8931048E02888000AE075287820760B
:10492000F6E713095B061B0E120701D05B1CDBB216
:10493000E7752076637684F893C0002011E0C20703
:1049400020F0010201D0AA5C01E0AA5A120A94F8F0
:1049500093707A5494F89320521C401C84F893204E
:1049600080B29842EBD31FE0E77520765000607666
:1049700084F893C0002015E035F8103094F8937057
:104980001B0A7B5494F893305B1CDBB284F89330A1
:1049900015F810705F5494F893305B1C401C84F839
:1049A000933080B28242E7D8204601F07DFF002399
:1049B0001A461946D4F8B80002F018FD012084F810
:1049C000A700A674002072E72DE9F05F5E495F4CF6
:1049D000DFF87C8109785F4D4FF480674FF4006900
:1049E0004FF4007A4FF4005B79B1092836D2DFE842
:1049F00000F0373940566782939F370080F00100FE
:104A00002870FDF799FB686001E047F23056FDF72A
:104A100093FB6968401AB0422878EFD800B34E483B
:104A200000880C281CD0002239462046FDF77FFB69
:104A3000012211464046FDF77AFB012249462046F5
:104A4000FDF775FB002251462046FDF770FB012261
:104A500059464248FDF76BFB00202870BDE8F09FE7
:104A6000002266E0002239462046FDF760FB012265
:104A700058E0002239462046FDF759FB002201216B
:104A80004046FDF754FB012249462046FDF74FFB07
:104A9000002251462046FDF74AFB002225E0002275
:104AA00039462046FDF743FB002201214046FDF731
:104AB0003EFB002249462046FDF739FB0122E8E78C
:104AC000002239462046FDF732FB002201214046F4
:104AD000FDF72DFB002249462046FDF728FB00226A
:104AE00051462046FDF723FB01225946BDE8F05F01
:104AF0001A48FDF71CBB012239462046FDF717FB7B
:104B0000002201214046FDF712FB002249462046C3
:104B1000FDF70DFB0122E3E7012239462046FDF7B0
:104B200006FB002201214046FDF701FB0022ABE716
:104B3000012239462046FDF7FAFA01221146404685
:104B4000FDF7F5FA0122C6E77A01002000200240B5
:104B50000014024070010020DE0000200008024026
:104B6000FBF708FE012001F04BF8F9E7194C1A4D4C
:104B70001A4E4FF0FF373946D4F8B80002F0E2FD84
:104B800000231A461946D4F8B80002F02FFC012081
:104B900001F036F83946D5F8B80002F0D3FD00230D
:104BA0001A461946D5F8B80002F020FC012001F0A1
:104BB00027F83946D6F8B80002F0C4FD00231A469B
:104BC0001946D6F8B80002F011FC012001F018F8DF
:104BD000D1E70000EC04002088060020EC0700204C
:104BE000FFF70CFB012001F00BF8F9E7FCF764F983
:104BF000FBF7A6FF012001F003F8F7E700F052FAF7
:104C0000FFF770FA012000F0FBFFF7E70D4D0E4CA7
:104C10004FF400774FF48068C82639462846FDF7E0
:104C20007EFA41462846FDF77AFA2088401E80B277
:104C300020800A38BF2800D32680208800F0E0FFBB
:104C4000EBE700000014024018000020284C08B5D3
:104C500001202070042161704FF47A71618031214C
:104C6000A1802449A1602074102161744FF4FA617D
:104C700061821321A1822049A16184F820000320D0
:104C800084F82100002060842920A0841B48A062B1
:104C9000E068009094E80E001948FFF7C1F901217F
:104CA000084601F059FE012000F0AAFF104804F167
:104CB0001001C06900900EC91148FFF7B1F9012138
:104CC000084601F049FE012000F09AFF084804F16F
:104CD0002001C06A00900EC90A48FFF7A1F901211E
:104CE000084601F039FE012000F08AFFD0E70000FD
:104CF00094100020F00200208C0B0020980400206B
:104D0000AC0100205403002086B004464FF0FF3869
:104D100000264546424601A9D4F8A80002F076FCD8
:104D2000049800900DF1040C20469CE80E00FFF75B
:104D300099FD2946012001F00FFEA67420B184F8E8
:104D4000A7606FF007010AE0204600F090FD94F89C
:104D5000930006280AD284F8A7606FF00501A174B9
:104D6000B4F8A000401CA4F8A0000FE000960023B7
:104D70001A460321D4F8B40003F00AF9204602F0E1
:104D8000FBF841B231B184F8A760A174002303227B
:104D9000049858E0A1742946D4F8B80002F0D2FC77
:104DA000207D05283DDA012806D0022804D00328FA
:104DB00023D0042835D120E00327002519E0D4F8BA
:104DC0009810E80725F0010905D0EA19101911F823
:104DD0000910C07C05E031F80900EA191119000A30
:104DE000C97C02F097F9D4F898206D1CEDB222F836
:104DF0000900607DA842E2D813E0032700250CE0FB
:104E0000E019017DC07C02F085F9D4F89810BF1C30
:104E1000FFB221F815006D1CEDB2607DB5EB500FAF
:104E2000EED384F8A760A07C00287FF472AF002343
:104E30001A461946D4F8B80002F0D8FA0023032223
:104E40006FF00A01049802F0CBFD62E704464FF0D0
:104E5000010B4FF0080900274FF0060AA77494F8D9
:104E60004001012801D0042809D14FF0FF31012071
:104E700001F072FD204600F0FAFCC01C0BD094F843
:104E80009300072809D2FA20A074B4F8A000401CAF
:104E9000A4F8A000E2E7FD20F6E7E07C217A884252
:104EA000DCD1204602F09CF805000DD0207D217A4F
:104EB000E174803020756575032084F893002046E6
:104EC00001F0F2FCA574C9E7A7744FF0FF31D4F8E4
:104ED000B80002F037FC207D05281AD008DC012834
:104EE0000DD002280BD003280DD004282ED10AE0C3
:104EF00006283DD00F284DD0102827D14EE020465F
:104F000000F079FF02E0204601F012F884F8A700D3
:104F10001CE0A17D607D02F0FDF80146E27D000904
:104F200001F00F01FF2A19D0D4F898200BFA01F3F1
:104F300032F810509D4322F8105000BF84F893A01F
:104F40004D46204601F0B0FC84F8A75000231A46D5
:104F50001946D4F8B80002F049FA7FE7D4F898303F
:104F60000BFA01F533F810202A4323F81020E5E767
:104F7000A17D607D02F0CEF80546217EE07D02F045
:104F8000C9F8D4F8981021F8150084F893A04D467C
:104F90002046D7E7204600F087FFB7E7B4F81500B2
:104FA000002590FA90F8B4F81700E77546BA26760F
:104FB00084F893A00FE000BF04EB4500C17E807E23
:104FC00002F0A8F8014608EB0500D4F898206D1C03
:104FD000ADB222F81010B542EED394F893502046AB
:104FE000AD1CAFE710B54FF0E020006902F0F0FD16
:104FF000012803D0BDE8104002F00CB910BD00003C
:1050000030B593B030216846FBF762FA14210CA842
:10501000FBF75EFA1D480025016841F080510160F0
:10502000006800F0805011901948016841F48041F7
:1050300001600068022400F4804011900120039078
:1050400010200490009406940820CDE90750A82071
:10505000CDE9090404200B906846FDF767FA08B112
:1050600072B6FEE70CA90F2081E831004FF4A05082
:105070000F904FF48050109005210CA8FDF74CF9CB
:10508000002801D072B6FEE713B030BD40380240B0
:10509000007000400248016841F4700101607047EF
:1050A00088ED00E030B51D4908894A89104483B273
:1050B0001B48C383C27C12B1032A04D007E08C8B47
:1050C00002E0012402E00C8C002CFAD14472B1F809
:1050D0004C10048BA1420CD00183642905D96424AF
:1050E000B1FBF4F504FB151102E00A24B1FBF4F165
:1050F0004183018B702902D10AB905214183418B7B
:10510000084820F83C1F4FF4C87141800649B1F8A7
:10511000501081805908C18030BD0000F00200208D
:10512000C400002030060020980400200148FDF74C
:10513000B0BC0000AC0900200148FDF7AABC00008B
:1051400004110020F0B50268254C264D264E274F4D
:10515000274B4FF0804CA04209D0604507D0A842B1
:1051600005D0B04203D0B84201D0984204D122F019
:10517000700E4A6842EA0E02A0421BD0604519D068
:10518000A84217D0B04215D0B84213D0984211D0DF
:10519000184DA8420ED0184DA8420BD0174DA8426A
:1051A00008D0174DA84205D0164DA84202D0164D82
:1051B000A84203D122F44075CA682A434D6922F0FF
:1051C00080022A4302608A68C2620A688262A04240
:1051D00001D0984201D10969016301214161F0BD0B
:1051E000000001400004004000080040000C0040A6
:1051F00000040140004001400044014000480140DB
:1052000000180040001C00400020004010B58468D9
:1052100042EA032224F47F440A432243826010BD01
:10522000826822F070020A4342F0070181607047F1
:1052300010B5036A046A24F001040462846924F04E
:10524000F00444EA021423F00A020A438461026271
:1052500010BD10B5036A23F0100303628369046A6A
:1052600023F4704343EA023224F0A00343EA01111D
:105270008261016210BD00002DE9F041264D274CEE
:10528000002618B301281FD1A07C00281CD00122C1
:1052900040212846FCF74BFF002220212846FCF73E
:1052A00046FF40F2B22000F0ABFC9FED1D0A002249
:1052B00084ED090AA67440212846FCF738FF002235
:1052C00020212846FCF733FFBDE8F0810022402171
:1052D0002846FCF72CFF012220212846FCF727FF57
:1052E000104F02E00A2000F08BFC08213846FCF742
:1052F00011FF0028F6D0002240212846FCF717FFB6
:10530000002220212846FCF712FF0749A67402203C
:1053100088816671D8E7000000200240C4000020A8
:105320000000C843000C0240CC0700200148FDF7F4
:105330009DBE0000F40900200148FDF797BE000063
:10534000380A002010B5806B0021C185C184FDF7AB
:1053500057FE10BD70B5846B2068406994F83D100D
:10536000C0F3C0100025212904D118B1E5842046DE
:1053700000F0BBF82068406994F83E10C0F380103C
:10538000222904D118B1E585204600F087F8206C69
:1053900040F0100020642046FDF732FE70BD10B5CD
:1053A0000146806B09680968C9052FD40021C185B1
:1053B00001680C3151E8002F22F4807241E800238B
:1053C000002BF5D10168143151E8002F22F00102C1
:1053D00041E80023002BF5D10168143151E8002F7A
:1053E00022F0400241E80023002BF5D1202180F873
:1053F0003E10016B012909D101680C3151E8002FE1
:1054000022F0100241E80023002BF5D1016B0129A5
:1054100002D0FEF717FA10BD818DFDF705FD10BD16
:1054200010B5806B016B012902D0FEF74DFA10BD5B
:10543000818D4908FDF7F8FC10BD10B5806B002187
:10544000C185202280F83E200163FDF753FD10BD89
:1054500010B50146806B09680968C90516D400219A
:10546000C1840168143151E8002F22F0800241E824
:105470000023002BF5D101680C3151E8002F42F0D8
:10548000400241E80023002BF5D110BDFEF784FA5D
:1054900010BD10B5806BFEF7ADFA10BD01680C3180
:1054A00051E8002F22F4907241E80023002BF5D13F
:1054B0000168143151E8002F22F0010241E8002375
:1054C000002BF5D1016B012909D101680C3151E89C
:1054D000002F22F0100241E80023002BF5D12021FB
:1054E00080F83E1000210163704701680C3151E8DB
:1054F000002F22F0C00241E80023002BF5D120212B
:1055000080F83D10704708B590F83E10222901D070
:10551000022008BD82684FF480539A4201D101698C
:1055200021B1816A9A421BD04AB10AE00268816ABD
:105530005268C2F308020A80816A891C08E0026985
:1055400072B10268526802F07F020A70816A491CD7
:105550008162C18D491E0904090CC18503D019E07F
:1055600002685268F1E70168CA6822F02002CA6046
:105570000168CA6822F48072CA6001684A6922F030
:1055800001024A61202180F83E10016B012903D0FD
:10559000FEF758F9002008BD0021016301680C31B5
:1055A00051E8002F22F0100241E80023002BF5D132
:1055B00001680A68D20602D50A6849680091818D9F
:1055C000FDF732FCE6E7000070B5044600680169AB
:1055D000E26821F44051114301612169A068E26948
:1055E00008436169114308432168CA6849F20C63A2
:1055F0009A430243CA6020684169A26921F440715C
:105600001143416131492068884202D030498842C3
:1056100002D1FCF74BFF01E0FCF738FFE269002301
:10562000192164253226B2F5004F626828D0A0FB0C
:105630000101930F9200FAF787FE0146B0FBF5F0E7
:105640006FF01802504301EB800006EB0010B0FB36
:10565000F5F000F0F002B1FBF5F002EB0012B1FB47
:10566000F5F06FF01803584301EB800006EB0010D3
:10567000B0FBF5F000F00F0021681044886070BDA9
:10568000A0FB010192185B41FAF75EFE0146B0FBF8
:10569000F5F00201B1FBF5F06FF01803584301EB90
:1056A000800006EBC000B0FBF5F000F0F80002EB64
:1056B0004002B1FBF5F0584301EB800006EBC0005F
:1056C000B0FBF5F000F00700D6E700000010014045
:1056D0000014014038B581628285002513460446D6
:1056E0000564222084F83E00A26B1C48D063A26BA4
:1056F0001B481064A26B1B48D064A06B0A4605656A
:105700002168A06B091DFCF70DFB2068016840684B
:10571000009084F83C50206948B120680C3050E873
:10572000001F41F4807140E80012002AF5D1206882
:10573000143050E8001F41F0010140E80012002A37
:10574000F5D12068143050E8001F41F0400140E8D6
:105750000012002AF5D1002038BD00009F53000838
:10576000215400085553000881628285C2850021BA
:105770000164222280F83E2080F83C10016921B1AA
:105780000168CA6842F48072CA6001684A6942F0DE
:1057900001024A610068C16841F02001C160002037
:1057A000704700000148FDF761BC00007C0A002042
:1057B0000148FDF75BBC0000C00A00200148FDF76E
:1057C00055BC0000040B00200148FDF74FBC000051
:1057D000480B0020FEE70907090E002804DB00F152
:1057E000E02080F80014704700F00F0000F1E02086
:1057F00080F8141D70470000BFF34F8F0548016803
:10580000054A01F4E06111430160BFF34F8F00BF0F
:10581000FDE700000CED00E00400FA0570B54FF65E
:10582000FF7200234AF201050EE0C45C62400124CD
:1058300012F0010F4FEA520200D06A40641CE4B239
:10584000082CF5D95B1CDBB28B42EED3100A40EA80
:10585000022080B270BD11B504222DED020B002193
:105860006B465C5C4454491C9142FADB1EBD70B52A
:10587000044690F84001012802D16068FDF73CFB26
:1058800094F83F1104F1BC0021B1FEF7B4FF6FF0B2
:1058900002050BE004F11301FEF7B4FF84F8930056
:1058A000B4F89C100546491CA4F89C1094F84001DB
:1058B000012805D1012204F1A6016068FDF7ACFFC3
:1058C000284670BDFCF778FCFFF79AFBFEF7A4F9B9
:1058D000FEF702F9FEF7E0F8DFF8CCB2B14958461E
:1058E0004FF416450024CBF80010C0E901540C26F3
:1058F000CBF80C40C0E90446CBF81840CBF81C406C
:10590000FDF7E8FC08B172B6FEE7A748A7494430A6
:105910004FF416570160C0E90174C460C0E9044641
:105920008461C461FDF7D6FC08B172B6FEE7DFF80A
:1059300078A29F490AF1880A5046CAF80010C0E9C7
:105940000174CAF80C40C0E90446CAF81840CAF805
:105950001C40FDF7BFFC08B172B6FEE792489549BE
:10596000CC30A8460160C0E90154C460C0E90446D7
:105970008461C461FDF7AEFC08B172B6FEE78F4DDD
:105980008D4828604FF4E130C5E90104EC60C5E9B9
:105990000446AC612846EC61FDF79CFC08B172B688
:1059A000FEE7864F864844373860C7E90184FC60CB
:1059B000C7E90446BC613846FC61FDF78BFC08B1C1
:1059C00072B6FEE7FEF736F8FEF784FA7D490B2043
:1059D000FEF7A8FA74484838FCF7ACFFFBF764F808
:1059E000FEF70AF878480426784906704560047284
:1059F0004FF47A75A0F8A250C1600915018200F534
:105A0000A271C0F898103121A0F8A41080F840616C
:105A1000FEF790FA6C48FEF717FB6D484FF003084D
:105A20004FF0010980F80080476080F80890A0F8E6
:105A3000A250C460048200F5A2772C21C0F89870AF
:105A4000A0F8A41080F84061FEF774FA6048FEF7F1
:105A5000FBFA07F15800082180F80080C0F804B074
:105A600080F80880A0F8A250DFF868B1C0F80CB048
:105A7000018200F5A271C0F898100F21A0F8A410BF
:105A800080F84061FEF756FA07F15800FEF7DCFA9D
:105A900007F5DE701B2180F80080C0F804A00172B9
:105AA000A0F8A250C460048200F5A271C0F898105A
:105AB0000521A0F8A41080F84061FEF73BFA07F535
:105AC000DE70FEF7C1FAA7F5377000F2E4610670E8
:105AD00041600472A0F8A2503C49C160A0F8109047
